{
  "_format": "hh-sol-artifact-1",
  "contractName": "RBACManager",
  "sourceName": "contracts/RBACManager.sol",
  "abi": [
    {
      "inputs": [],
      "stateMutability": "nonpayable",
      "type": "constructor"
    },
    {
      "inputs": [],
      "name": "AccessControlBadConfirmation",
      "type": "error"
    },
    {
      "inputs": [
        {
          "internalType": "address",
          "name": "account",
          "type": "address"
        },
        {
          "internalType": "bytes32",
          "name": "neededRole",
          "type": "bytes32"
        }
      ],
      "name": "AccessControlUnauthorizedAccount",
      "type": "error"
    },
    {
      "anonymous": false,
      "inputs": [
        {
          "indexed": false,
          "internalType": "string",
          "name": "name",
          "type": "string"
        },
        {
          "indexed": true,
          "internalType": "address",
          "name": "addedBy",
          "type": "address"
        }
      ],
      "name": "EventAdded",
      "type": "event"
    },
    {
      "anonymous": false,
      "inputs": [
        {
          "indexed": true,
          "internalType": "bytes32",
          "name": "role",
          "type": "bytes32"
        },
        {
          "indexed": true,
          "internalType": "bytes32",
          "name": "previousAdminRole",
          "type": "bytes32"
        },
        {
          "indexed": true,
          "internalType": "bytes32",
          "name": "newAdminRole",
          "type": "bytes32"
        }
      ],
      "name": "RoleAdminChanged",
      "type": "event"
    },
    {
      "anonymous": false,
      "inputs": [
        {
          "indexed": true,
          "internalType": "bytes32",
          "name": "role",
          "type": "bytes32"
        },
        {
          "indexed": true,
          "internalType": "address",
          "name": "account",
          "type": "address"
        },
        {
          "indexed": true,
          "internalType": "address",
          "name": "sender",
          "type": "address"
        }
      ],
      "name": "RoleGranted",
      "type": "event"
    },
    {
      "anonymous": false,
      "inputs": [
        {
          "indexed": true,
          "internalType": "bytes32",
          "name": "role",
          "type": "bytes32"
        },
        {
          "indexed": true,
          "internalType": "address",
          "name": "account",
          "type": "address"
        },
        {
          "indexed": true,
          "internalType": "address",
          "name": "sender",
          "type": "address"
        }
      ],
      "name": "RoleRevoked",
      "type": "event"
    },
    {
      "inputs": [],
      "name": "DEFAULT_ADMIN_ROLE",
      "outputs": [
        {
          "internalType": "bytes32",
          "name": "",
          "type": "bytes32"
        }
      ],
      "stateMutability": "view",
      "type": "function"
    },
    {
      "inputs": [],
      "name": "EDITOR_ROLE",
      "outputs": [
        {
          "internalType": "bytes32",
          "name": "",
          "type": "bytes32"
        }
      ],
      "stateMutability": "view",
      "type": "function"
    },
    {
      "inputs": [],
      "name": "VIEWER_ROLE",
      "outputs": [
        {
          "internalType": "bytes32",
          "name": "",
          "type": "bytes32"
        }
      ],
      "stateMutability": "view",
      "type": "function"
    },
    {
      "inputs": [
        {
          "internalType": "string",
          "name": "name",
          "type": "string"
        },
        {
          "internalType": "string",
          "name": "description",
          "type": "string"
        }
      ],
      "name": "addEvent",
      "outputs": [],
      "stateMutability": "nonpayable",
      "type": "function"
    },
    {
      "inputs": [
        {
          "internalType": "uint256",
          "name": "",
          "type": "uint256"
        }
      ],
      "name": "events",
      "outputs": [
        {
          "internalType": "string",
          "name": "name",
          "type": "string"
        },
        {
          "internalType": "string",
          "name": "description",
          "type": "string"
        },
        {
          "internalType": "uint256",
          "name": "timestamp",
          "type": "uint256"
        }
      ],
      "stateMutability": "view",
      "type": "function"
    },
    {
      "inputs": [
        {
          "internalType": "uint256",
          "name": "index",
          "type": "uint256"
        }
      ],
      "name": "getEvent",
      "outputs": [
        {
          "internalType": "string",
          "name": "",
          "type": "string"
        },
        {
          "internalType": "string",
          "name": "",
          "type": "string"
        },
        {
          "internalType": "uint256",
          "name": "",
          "type": "uint256"
        }
      ],
      "stateMutability": "view",
      "type": "function"
    },
    {
      "inputs": [],
      "name": "getEventCount",
      "outputs": [
        {
          "internalType": "uint256",
          "name": "",
          "type": "uint256"
        }
      ],
      "stateMutability": "view",
      "type": "function"
    },
    {
      "inputs": [
        {
          "internalType": "bytes32",
          "name": "role",
          "type": "bytes32"
        }
      ],
      "name": "getRoleAdmin",
      "outputs": [
        {
          "internalType": "bytes32",
          "name": "",
          "type": "bytes32"
        }
      ],
      "stateMutability": "view",
      "type": "function"
    },
    {
      "inputs": [
        {
          "internalType": "address",
          "name": "account",
          "type": "address"
        }
      ],
      "name": "grantEditorRole",
      "outputs": [],
      "stateMutability": "nonpayable",
      "type": "function"
    },
    {
      "inputs": [
        {
          "internalType": "bytes32",
          "name": "role",
          "type": "bytes32"
        },
        {
          "internalType": "address",
          "name": "account",
          "type": "address"
        }
      ],
      "name": "grantRole",
      "outputs": [],
      "stateMutability": "nonpayable",
      "type": "function"
    },
    {
      "inputs": [
        {
          "internalType": "address",
          "name": "account",
          "type": "address"
        }
      ],
      "name": "grantViewerRole",
      "outputs": [],
      "stateMutability": "nonpayable",
      "type": "function"
    },
    {
      "inputs": [
        {
          "internalType": "bytes32",
          "name": "role",
          "type": "bytes32"
        },
        {
          "internalType": "address",
          "name": "account",
          "type": "address"
        }
      ],
      "name": "hasRole",
      "outputs": [
        {
          "internalType": "bool",
          "name": "",
          "type": "bool"
        }
      ],
      "stateMutability": "view",
      "type": "function"
    },
    {
      "inputs": [
        {
          "internalType": "bytes32",
          "name": "role",
          "type": "bytes32"
        },
        {
          "internalType": "address",
          "name": "callerConfirmation",
          "type": "address"
        }
      ],
      "name": "renounceRole",
      "outputs": [],
      "stateMutability": "nonpayable",
      "type": "function"
    },
    {
      "inputs": [
        {
          "internalType": "bytes32",
          "name": "role",
          "type": "bytes32"
        },
        {
          "internalType": "address",
          "name": "account",
          "type": "address"
        }
      ],
      "name": "revokeRole",
      "outputs": [],
      "stateMutability": "nonpayable",
      "type": "function"
    },
    {
      "inputs": [
        {
          "internalType": "bytes4",
          "name": "interfaceId",
          "type": "bytes4"
        }
      ],
      "name": "supportsInterface",
      "outputs": [
        {
          "internalType": "bool",
          "name": "",
          "type": "bool"
        }
      ],
      "stateMutability": "view",
      "type": "function"
    }
  ],
  "bytecode": "0x608060405234801561001057600080fd5b506100246000801b3361002a60201b60201c565b50610199565b600061003c838361012760201b60201c565b61011c57600160008085815260200190815260200160002060000160008473ffffffffffffffffffffffffffffffffffffffff1673ffffffffffffffffffffffffffffffffffffffff16815260200190815260200160002060006101000a81548160ff0219169083151502179055506100b961019160201b60201c565b73ffffffffffffffffffffffffffffffffffffffff168273ffffffffffffffffffffffffffffffffffffffff16847f2f8788117e7eff1d82e926ec794901d17c78024a50270940304540a733656f0d60405160405180910390a460019050610121565b600090505b92915050565b600080600084815260200190815260200160002060000160008373ffffffffffffffffffffffffffffffffffffffff1673ffffffffffffffffffffffffffffffffffffffff16815260200190815260200160002060009054906101000a900460ff16905092915050565b600033905090565b6115a780620001a96000396000f3fe608060405234801561001057600080fd5b50600436106100f55760003560e01c806350219eaf11610097578063a853211a11610066578063a853211a1461029a578063c9fe180a146102b8578063d547741f146102d4578063d9e48f5c146102f0576100f5565b806350219eaf146101fc5780636d1884e01461021a57806391d148541461024c578063a217fddf1461027c576100f5565b80631b26be1d116100d35780631b26be1d14610178578063248a9ca3146101945780632f2ff15d146101c457806336568abe146101e0576100f5565b806301ffc9a7146100fa578063090499161461012a5780630b79143014610146575b600080fd5b610114600480360381019061010f9190610cd4565b61030e565b6040516101219190610d1c565b60405180910390f35b610144600480360381019061013f9190610d95565b610388565b005b610160600480360381019061015b9190610df8565b6103c3565b60405161016f93929190610ec4565b60405180910390f35b610192600480360381019061018d919061103e565b61050d565b005b6101ae60048036038101906101a991906110ec565b610607565b6040516101bb9190611128565b60405180910390f35b6101de60048036038101906101d99190611143565b610626565b005b6101fa60048036038101906101f59190611143565b610648565b005b6102046106c3565b6040516102119190611128565b60405180910390f35b610234600480360381019061022f9190610df8565b6106e7565b60405161024393929190610ec4565b60405180910390f35b61026660048036038101906102619190611143565b6108af565b6040516102739190610d1c565b60405180910390f35b610284610919565b6040516102919190611128565b60405180910390f35b6102a2610920565b6040516102af9190611128565b60405180910390f35b6102d260048036038101906102cd9190610d95565b610944565b005b6102ee60048036038101906102e99190611143565b61097f565b005b6102f86109a1565b6040516103059190611183565b60405180910390f35b60007f7965db0b000000000000000000000000000000000000000000000000000000007bffffffffffffffffffffffffffffffffffffffffffffffffffffffff1916827bffffffffffffffffffffffffffffffffffffffffffffffffffffffff191614806103815750610380826109ae565b5b9050919050565b6000801b61039581610a18565b6103bf7f4e8c8e9ca39468bb90c81b80f979119441019fdac7cbbbd930e0a604f8777d1d83610626565b5050565b600181815481106103d357600080fd5b90600052602060002090600302016000915090508060000180546103f6906111cd565b80601f0160208091040260200160405190810160405280929190818152602001828054610422906111cd565b801561046f5780601f106104445761010080835404028352916020019161046f565b820191906000526020600020905b81548152906001019060200180831161045257829003601f168201915b505050505090806001018054610484906111cd565b80601f01602080910402602001604051908101604052809291908181526020018280546104b0906111cd565b80156104fd5780601f106104d2576101008083540402835291602001916104fd565b820191906000526020600020905b8154815290600101906020018083116104e057829003601f168201915b5050505050908060020154905083565b7f21d1167972f621f75904fb065136bc8b53c7ba1c60ccd3a7758fbee465851e9c61053781610a18565b60016040518060600160405280858152602001848152602001428152509080600181540180825580915050600190039060005260206000209060030201600090919091909150600082015181600001908161059291906113aa565b5060208201518160010190816105a891906113aa565b506040820151816002015550503373ffffffffffffffffffffffffffffffffffffffff167ea41fbdb4b2a3c87055a40c0016fbab08eeb93cd841e7961020af9558c987a7846040516105fa919061147c565b60405180910390a2505050565b6000806000838152602001908152602001600020600101549050919050565b61062f82610607565b61063881610a18565b6106428383610a2c565b50505050565b610650610b1d565b73ffffffffffffffffffffffffffffffffffffffff168173ffffffffffffffffffffffffffffffffffffffff16146106b4576040517f6697b23200000000000000000000000000000000000000000000000000000000815260040160405180910390fd5b6106be8282610b25565b505050565b7f4e8c8e9ca39468bb90c81b80f979119441019fdac7cbbbd930e0a604f8777d1d81565b60608060006001805490508410610733576040517f08c379a000000000000000000000000000000000000000000000000000000000815260040161072a906114ea565b60405180910390fd5b6000600185815481106107495761074861150a565b5b9060005260206000209060030201604051806060016040529081600082018054610772906111cd565b80601f016020809104026020016040519081016040528092919081815260200182805461079e906111cd565b80156107eb5780601f106107c0576101008083540402835291602001916107eb565b820191906000526020600020905b8154815290600101906020018083116107ce57829003601f168201915b50505050508152602001600182018054610804906111cd565b80601f0160208091040260200160405190810160405280929190818152602001828054610830906111cd565b801561087d5780601f106108525761010080835404028352916020019161087d565b820191906000526020600020905b81548152906001019060200180831161086057829003601f168201915b505050505081526020016002820154815250509050806000015181602001518260400151935093509350509193909250565b600080600084815260200190815260200160002060000160008373ffffffffffffffffffffffffffffffffffffffff1673ffffffffffffffffffffffffffffffffffffffff16815260200190815260200160002060009054906101000a900460ff16905092915050565b6000801b81565b7f21d1167972f621f75904fb065136bc8b53c7ba1c60ccd3a7758fbee465851e9c81565b6000801b61095181610a18565b61097b7f21d1167972f621f75904fb065136bc8b53c7ba1c60ccd3a7758fbee465851e9c83610626565b5050565b61098882610607565b61099181610a18565b61099b8383610b25565b50505050565b6000600180549050905090565b60007f01ffc9a7000000000000000000000000000000000000000000000000000000007bffffffffffffffffffffffffffffffffffffffffffffffffffffffff1916827bffffffffffffffffffffffffffffffffffffffffffffffffffffffff1916149050919050565b610a2981610a24610b1d565b610c17565b50565b6000610a3883836108af565b610b1257600160008085815260200190815260200160002060000160008473ffffffffffffffffffffffffffffffffffffffff1673ffffffffffffffffffffffffffffffffffffffff16815260200190815260200160002060006101000a81548160ff021916908315150217905550610aaf610b1d565b73ffffffffffffffffffffffffffffffffffffffff168273ffffffffffffffffffffffffffffffffffffffff16847f2f8788117e7eff1d82e926ec794901d17c78024a50270940304540a733656f0d60405160405180910390a460019050610b17565b600090505b92915050565b600033905090565b6000610b3183836108af565b15610c0c57600080600085815260200190815260200160002060000160008473ffffffffffffffffffffffffffffffffffffffff1673ffffffffffffffffffffffffffffffffffffffff16815260200190815260200160002060006101000a81548160ff021916908315150217905550610ba9610b1d565b73ffffffffffffffffffffffffffffffffffffffff168273ffffffffffffffffffffffffffffffffffffffff16847ff6391f5c32d9c69d2a47ea670b442974b53935d1edc7fd64eb21e047a839171b60405160405180910390a460019050610c11565b600090505b92915050565b610c2182826108af565b610c645780826040517fe2517d3f000000000000000000000000000000000000000000000000000000008152600401610c5b929190611548565b60405180910390fd5b5050565b6000604051905090565b600080fd5b600080fd5b60007fffffffff0000000000000000000000000000000000000000000000000000000082169050919050565b610cb181610c7c565b8114610cbc57600080fd5b50565b600081359050610cce81610ca8565b92915050565b600060208284031215610cea57610ce9610c72565b5b6000610cf884828501610cbf565b91505092915050565b60008115159050919050565b610d1681610d01565b82525050565b6000602082019050610d316000830184610d0d565b92915050565b600073ffffffffffffffffffffffffffffffffffffffff82169050919050565b6000610d6282610d37565b9050919050565b610d7281610d57565b8114610d7d57600080fd5b50565b600081359050610d8f81610d69565b92915050565b600060208284031215610dab57610daa610c72565b5b6000610db984828501610d80565b91505092915050565b6000819050919050565b610dd581610dc2565b8114610de057600080fd5b50565b600081359050610df281610dcc565b92915050565b600060208284031215610e0e57610e0d610c72565b5b6000610e1c84828501610de3565b91505092915050565b600081519050919050565b600082825260208201905092915050565b60005b83811015610e5f578082015181840152602081019050610e44565b60008484015250505050565b6000601f19601f8301169050919050565b6000610e8782610e25565b610e918185610e30565b9350610ea1818560208601610e41565b610eaa81610e6b565b840191505092915050565b610ebe81610dc2565b82525050565b60006060820190508181036000830152610ede8186610e7c565b90508181036020830152610ef28185610e7c565b9050610f016040830184610eb5565b949350505050565b600080fd5b600080fd5b7f4e487b7100000000000000000000000000000000000000000000000000000000600052604160045260246000fd5b610f4b82610e6b565b810181811067ffffffffffffffff82111715610f6a57610f69610f13565b5b80604052505050565b6000610f7d610c68565b9050610f898282610f42565b919050565b600067ffffffffffffffff821115610fa957610fa8610f13565b5b610fb282610e6b565b9050602081019050919050565b82818337600083830152505050565b6000610fe1610fdc84610f8e565b610f73565b905082815260208101848484011115610ffd57610ffc610f0e565b5b611008848285610fbf565b509392505050565b600082601f83011261102557611024610f09565b5b8135611035848260208601610fce565b91505092915050565b6000806040838503121561105557611054610c72565b5b600083013567ffffffffffffffff81111561107357611072610c77565b5b61107f85828601611010565b925050602083013567ffffffffffffffff8111156110a05761109f610c77565b5b6110ac85828601611010565b9150509250929050565b6000819050919050565b6110c9816110b6565b81146110d457600080fd5b50565b6000813590506110e6816110c0565b92915050565b60006020828403121561110257611101610c72565b5b6000611110848285016110d7565b91505092915050565b611122816110b6565b82525050565b600060208201905061113d6000830184611119565b92915050565b6000806040838503121561115a57611159610c72565b5b6000611168858286016110d7565b925050602061117985828601610d80565b9150509250929050565b60006020820190506111986000830184610eb5565b92915050565b7f4e487b7100000000000000000000000000000000000000000000000000000000600052602260045260246000fd5b600060028204905060018216806111e557607f821691505b6020821081036111f8576111f761119e565b5b50919050565b60008190508160005260206000209050919050565b60006020601f8301049050919050565b600082821b905092915050565b6000600883026112607fffffffffffffffffffffffffffffffffffffffffffffffffffffffffffffffff82611223565b61126a8683611223565b95508019841693508086168417925050509392505050565b6000819050919050565b60006112a76112a261129d84610dc2565b611282565b610dc2565b9050919050565b6000819050919050565b6112c18361128c565b6112d56112cd826112ae565b848454611230565b825550505050565b600090565b6112ea6112dd565b6112f58184846112b8565b505050565b5b818110156113195761130e6000826112e2565b6001810190506112fb565b5050565b601f82111561135e5761132f816111fe565b61133884611213565b81016020851015611347578190505b61135b61135385611213565b8301826112fa565b50505b505050565b600082821c905092915050565b600061138160001984600802611363565b1980831691505092915050565b600061139a8383611370565b9150826002028217905092915050565b6113b382610e25565b67ffffffffffffffff8111156113cc576113cb610f13565b5b6113d682546111cd565b6113e182828561131d565b600060209050601f8311600181146114145760008415611402578287015190505b61140c858261138e565b865550611474565b601f198416611422866111fe565b60005b8281101561144a57848901518255600182019150602085019450602081019050611425565b868310156114675784890151611463601f891682611370565b8355505b6001600288020188555050505b505050505050565b600060208201905081810360008301526114968184610e7c565b905092915050565b7f496e76616c696420696e64657800000000000000000000000000000000000000600082015250565b60006114d4600d83610e30565b91506114df8261149e565b602082019050919050565b60006020820190508181036000830152611503816114c7565b9050919050565b7f4e487b7100000000000000000000000000000000000000000000000000000000600052603260045260246000fd5b61154281610d57565b82525050565b600060408201905061155d6000830185611539565b61156a6020830184611119565b939250505056fea26469706673582212203069e11c81849ede288ba690a27724d3b3cb09b2ba8c7b2fd4125c866d47797664736f6c63430008140033",
  "linkReferences": {},
  "deployedLinkReferences": {}
}